{"abi":[{"type":"function","name":"calculateInterest","inputs":[{"name":"_principal","type":"uint256","internalType":"uint256"}],"outputs":[{"name":"","type":"uint256","internalType":"uint256"}],"stateMutability":"pure"},{"type":"function","name":"generatePoolIndex","inputs":[{"name":"_user","type":"address","internalType":"address"},{"name":"_time","type":"uint256","internalType":"uint256"},{"name":"_initialSavingAmount","type":"uint256","internalType":"uint256"}],"outputs":[{"name":"","type":"bytes32","internalType":"bytes32"}],"stateMutability":"pure"}],"bytecode":{"object":"0x6103c461004d600b8282823980515f1a6073146041577f4e487b71000000000000000000000000000000000000000000000000000000005f525f60045260245ffd5b305f52607381538281f3fe730000000000000000000000000000000000000000301460806040526004361061003f575f3560e01c8063783a5e6214610043578063a57475e014610073575b5f5ffd5b61005d6004803603810190610058919061019c565b6100a3565b60405161006a9190610204565b60405180910390f35b61008d6004803603810190610088919061021d565b6100d8565b60405161009a9190610257565b60405180910390f35b5f8383836040516020016100b99392919061028e565b6040516020818303038152906040528051906020012090509392505050565b5f5f61271060646003856100ec91906102f0565b6100f691906102f0565b610100919061035e565b905080915050919050565b5f5ffd5b5f73ffffffffffffffffffffffffffffffffffffffff82169050919050565b5f6101388261010f565b9050919050565b6101488161012e565b8114610152575f5ffd5b50565b5f813590506101638161013f565b92915050565b5f819050919050565b61017b81610169565b8114610185575f5ffd5b50565b5f8135905061019681610172565b92915050565b5f5f5f606084860312156101b3576101b261010b565b5b5f6101c086828701610155565b93505060206101d186828701610188565b92505060406101e286828701610188565b9150509250925092565b5f819050919050565b6101fe816101ec565b82525050565b5f6020820190506102175f8301846101f5565b92915050565b5f602082840312156102325761023161010b565b5b5f61023f84828501610188565b91505092915050565b61025181610169565b82525050565b5f60208201905061026a5f830184610248565b92915050565b6102798161012e565b82525050565b61028881610169565b82525050565b5f6060820190506102a15f830186610270565b6102ae602083018561027f565b6102bb604083018461027f565b949350505050565b7f4e487b71000000000000000000000000000000000000000000000000000000005f52601160045260245ffd5b5f6102fa82610169565b915061030583610169565b925082820261031381610169565b9150828204841483151761032a576103296102c3565b5b5092915050565b7f4e487b71000000000000000000000000000000000000000000000000000000005f52601260045260245ffd5b5f61036882610169565b915061037383610169565b92508261038357610382610331565b5b82820490509291505056fea2646970667358221220d6e47dd8261bbc1cdf1d232ee99046c50688bb66bfdaa2d2299c247e6ffa219c64736f6c634300081c0033","linkReferences":{}},"methodIdentifiers":{"calculateInterest(uint256)":"a57475e0","generatePoolIndex(address,uint256,uint256)":"783a5e62"},"id":0}